{
  "_format": "hh-sol-artifact-1",
  "contractName": "NFTMarketplace",
  "sourceName": "contracts/NFTMarketplace.sol",
  "abi": [
    {
      "inputs": [],
      "stateMutability": "nonpayable",
      "type": "constructor"
    },
    {
      "anonymous": false,
      "inputs": [
        {
          "indexed": true,
          "internalType": "address",
          "name": "owner",
          "type": "address"
        },
        {
          "indexed": true,
          "internalType": "address",
          "name": "approved",
          "type": "address"
        },
        {
          "indexed": true,
          "internalType": "uint256",
          "name": "tokenId",
          "type": "uint256"
        }
      ],
      "name": "Approval",
      "type": "event"
    },
    {
      "anonymous": false,
      "inputs": [
        {
          "indexed": true,
          "internalType": "address",
          "name": "owner",
          "type": "address"
        },
        {
          "indexed": true,
          "internalType": "address",
          "name": "operator",
          "type": "address"
        },
        {
          "indexed": false,
          "internalType": "bool",
          "name": "approved",
          "type": "bool"
        }
      ],
      "name": "ApprovalForAll",
      "type": "event"
    },
    {
      "anonymous": false,
      "inputs": [
        {
          "indexed": false,
          "internalType": "uint256",
          "name": "_fromTokenId",
          "type": "uint256"
        },
        {
          "indexed": false,
          "internalType": "uint256",
          "name": "_toTokenId",
          "type": "uint256"
        }
      ],
      "name": "BatchMetadataUpdate",
      "type": "event"
    },
    {
      "anonymous": false,
      "inputs": [
        {
          "indexed": false,
          "internalType": "uint256",
          "name": "_tokenId",
          "type": "uint256"
        }
      ],
      "name": "MetadataUpdate",
      "type": "event"
    },
    {
      "anonymous": false,
      "inputs": [
        {
          "indexed": true,
          "internalType": "address",
          "name": "from",
          "type": "address"
        },
        {
          "indexed": true,
          "internalType": "address",
          "name": "to",
          "type": "address"
        },
        {
          "indexed": true,
          "internalType": "uint256",
          "name": "tokenId",
          "type": "uint256"
        }
      ],
      "name": "Transfer",
      "type": "event"
    },
    {
      "anonymous": false,
      "inputs": [
        {
          "indexed": true,
          "internalType": "uint256",
          "name": "tokenId",
          "type": "uint256"
        },
        {
          "indexed": false,
          "internalType": "address",
          "name": "seller",
          "type": "address"
        },
        {
          "indexed": false,
          "internalType": "address",
          "name": "owner",
          "type": "address"
        },
        {
          "indexed": false,
          "internalType": "uint256",
          "name": "price",
          "type": "uint256"
        },
        {
          "indexed": false,
          "internalType": "bool",
          "name": "sold",
          "type": "bool"
        }
      ],
      "name": "idMarketItemCreated",
      "type": "event"
    },
    {
      "inputs": [
        {
          "internalType": "address",
          "name": "to",
          "type": "address"
        },
        {
          "internalType": "uint256",
          "name": "tokenId",
          "type": "uint256"
        }
      ],
      "name": "approve",
      "outputs": [],
      "stateMutability": "nonpayable",
      "type": "function"
    },
    {
      "inputs": [
        {
          "internalType": "address",
          "name": "owner",
          "type": "address"
        }
      ],
      "name": "balanceOf",
      "outputs": [
        {
          "internalType": "uint256",
          "name": "",
          "type": "uint256"
        }
      ],
      "stateMutability": "view",
      "type": "function"
    },
    {
      "inputs": [
        {
          "internalType": "uint256",
          "name": "tokenId",
          "type": "uint256"
        }
      ],
      "name": "createMarketSale",
      "outputs": [],
      "stateMutability": "payable",
      "type": "function"
    },
    {
      "inputs": [
        {
          "internalType": "string",
          "name": "tokenURI",
          "type": "string"
        },
        {
          "internalType": "uint256",
          "name": "price",
          "type": "uint256"
        }
      ],
      "name": "createToken",
      "outputs": [
        {
          "internalType": "uint256",
          "name": "",
          "type": "uint256"
        }
      ],
      "stateMutability": "payable",
      "type": "function"
    },
    {
      "inputs": [],
      "name": "fetchItemListed",
      "outputs": [
        {
          "components": [
            {
              "internalType": "uint256",
              "name": "tokenId",
              "type": "uint256"
            },
            {
              "internalType": "address payable",
              "name": "seller",
              "type": "address"
            },
            {
              "internalType": "address payable",
              "name": "owner",
              "type": "address"
            },
            {
              "internalType": "uint256",
              "name": "price",
              "type": "uint256"
            },
            {
              "internalType": "bool",
              "name": "sold",
              "type": "bool"
            }
          ],
          "internalType": "struct NFTMarketplace.MarketItem[]",
          "name": "",
          "type": "tuple[]"
        }
      ],
      "stateMutability": "view",
      "type": "function"
    },
    {
      "inputs": [],
      "name": "fetchMarketItem",
      "outputs": [
        {
          "components": [
            {
              "internalType": "uint256",
              "name": "tokenId",
              "type": "uint256"
            },
            {
              "internalType": "address payable",
              "name": "seller",
              "type": "address"
            },
            {
              "internalType": "address payable",
              "name": "owner",
              "type": "address"
            },
            {
              "internalType": "uint256",
              "name": "price",
              "type": "uint256"
            },
            {
              "internalType": "bool",
              "name": "sold",
              "type": "bool"
            }
          ],
          "internalType": "struct NFTMarketplace.MarketItem[]",
          "name": "",
          "type": "tuple[]"
        }
      ],
      "stateMutability": "view",
      "type": "function"
    },
    {
      "inputs": [],
      "name": "fetchMyNFT",
      "outputs": [
        {
          "components": [
            {
              "internalType": "uint256",
              "name": "tokenId",
              "type": "uint256"
            },
            {
              "internalType": "address payable",
              "name": "seller",
              "type": "address"
            },
            {
              "internalType": "address payable",
              "name": "owner",
              "type": "address"
            },
            {
              "internalType": "uint256",
              "name": "price",
              "type": "uint256"
            },
            {
              "internalType": "bool",
              "name": "sold",
              "type": "bool"
            }
          ],
          "internalType": "struct NFTMarketplace.MarketItem[]",
          "name": "",
          "type": "tuple[]"
        }
      ],
      "stateMutability": "view",
      "type": "function"
    },
    {
      "inputs": [
        {
          "internalType": "uint256",
          "name": "tokenId",
          "type": "uint256"
        }
      ],
      "name": "getApproved",
      "outputs": [
        {
          "internalType": "address",
          "name": "",
          "type": "address"
        }
      ],
      "stateMutability": "view",
      "type": "function"
    },
    {
      "inputs": [],
      "name": "getListingPrice",
      "outputs": [
        {
          "internalType": "uint256",
          "name": "",
          "type": "uint256"
        }
      ],
      "stateMutability": "view",
      "type": "function"
    },
    {
      "inputs": [
        {
          "internalType": "address",
          "name": "owner",
          "type": "address"
        },
        {
          "internalType": "address",
          "name": "operator",
          "type": "address"
        }
      ],
      "name": "isApprovedForAll",
      "outputs": [
        {
          "internalType": "bool",
          "name": "",
          "type": "bool"
        }
      ],
      "stateMutability": "view",
      "type": "function"
    },
    {
      "inputs": [],
      "name": "name",
      "outputs": [
        {
          "internalType": "string",
          "name": "",
          "type": "string"
        }
      ],
      "stateMutability": "view",
      "type": "function"
    },
    {
      "inputs": [
        {
          "internalType": "uint256",
          "name": "tokenId",
          "type": "uint256"
        }
      ],
      "name": "ownerOf",
      "outputs": [
        {
          "internalType": "address",
          "name": "",
          "type": "address"
        }
      ],
      "stateMutability": "view",
      "type": "function"
    },
    {
      "inputs": [
        {
          "internalType": "uint256",
          "name": "tokenId",
          "type": "uint256"
        },
        {
          "internalType": "uint256",
          "name": "price",
          "type": "uint256"
        }
      ],
      "name": "reSellToken",
      "outputs": [],
      "stateMutability": "payable",
      "type": "function"
    },
    {
      "inputs": [
        {
          "internalType": "address",
          "name": "from",
          "type": "address"
        },
        {
          "internalType": "address",
          "name": "to",
          "type": "address"
        },
        {
          "internalType": "uint256",
          "name": "tokenId",
          "type": "uint256"
        }
      ],
      "name": "safeTransferFrom",
      "outputs": [],
      "stateMutability": "nonpayable",
      "type": "function"
    },
    {
      "inputs": [
        {
          "internalType": "address",
          "name": "from",
          "type": "address"
        },
        {
          "internalType": "address",
          "name": "to",
          "type": "address"
        },
        {
          "internalType": "uint256",
          "name": "tokenId",
          "type": "uint256"
        },
        {
          "internalType": "bytes",
          "name": "data",
          "type": "bytes"
        }
      ],
      "name": "safeTransferFrom",
      "outputs": [],
      "stateMutability": "nonpayable",
      "type": "function"
    },
    {
      "inputs": [
        {
          "internalType": "address",
          "name": "operator",
          "type": "address"
        },
        {
          "internalType": "bool",
          "name": "approved",
          "type": "bool"
        }
      ],
      "name": "setApprovalForAll",
      "outputs": [],
      "stateMutability": "nonpayable",
      "type": "function"
    },
    {
      "inputs": [
        {
          "internalType": "bytes4",
          "name": "interfaceId",
          "type": "bytes4"
        }
      ],
      "name": "supportsInterface",
      "outputs": [
        {
          "internalType": "bool",
          "name": "",
          "type": "bool"
        }
      ],
      "stateMutability": "view",
      "type": "function"
    },
    {
      "inputs": [],
      "name": "symbol",
      "outputs": [
        {
          "internalType": "string",
          "name": "",
          "type": "string"
        }
      ],
      "stateMutability": "view",
      "type": "function"
    },
    {
      "inputs": [
        {
          "internalType": "uint256",
          "name": "tokenId",
          "type": "uint256"
        }
      ],
      "name": "tokenURI",
      "outputs": [
        {
          "internalType": "string",
          "name": "",
          "type": "string"
        }
      ],
      "stateMutability": "view",
      "type": "function"
    },
    {
      "inputs": [
        {
          "internalType": "address",
          "name": "from",
          "type": "address"
        },
        {
          "internalType": "address",
          "name": "to",
          "type": "address"
        },
        {
          "internalType": "uint256",
          "name": "tokenId",
          "type": "uint256"
        }
      ],
      "name": "transferFrom",
      "outputs": [],
      "stateMutability": "nonpayable",
      "type": "function"
    },
    {
      "inputs": [
        {
          "internalType": "uint256",
          "name": "_listingPrice",
          "type": "uint256"
        }
      ],
      "name": "updateListingPrice",
      "outputs": [],
      "stateMutability": "payable",
      "type": "function"
    }
  ],
  "bytecode": "0x60806040526605543df729c0006009553480156200001c57600080fd5b506040518060400160405280601381526020017f4e4654204d657461766172736520546f6b656e000000000000000000000000008152506040518060400160405280600581526020017f4d594e465400000000000000000000000000000000000000000000000000000081525081600090816200009a919062000355565b508060019081620000ac919062000355565b5050503373ffffffffffffffffffffffffffffffffffffffff16600a60009054906101000a905050506200043c565b600081519050919050565b7f4e487b7100000000000000000000000000000000000000000000000000000000600052604160045260246000fd5b7f4e487b7100000000000000000000000000000000000000000000000000000000600052602260045260246000fd5b600060028204905060018216806200015d57607f821691505b60208210810362000173576200017262000115565b5b50919050565b60008190508160005260206000209050919050565b60006020601f8301049050919050565b600082821b905092915050565b600060088302620001dd7fffffffffffffffffffffffffffffffffffffffffffffffffffffffffffffffff826200019e565b620001e986836200019e565b95508019841693508086168417925050509392505050565b6000819050919050565b6000819050919050565b600062000236620002306200022a8462000201565b6200020b565b62000201565b9050919050565b6000819050919050565b620002528362000215565b6200026a62000261826200023d565b848454620001ab565b825550505050565b600090565b6200028162000272565b6200028e81848462000247565b505050565b5b81811015620002b657620002aa60008262000277565b60018101905062000294565b5050565b601f8211156200030557620002cf8162000179565b620002da846200018e565b81016020851015620002ea578190505b62000302620002f9856200018e565b83018262000293565b50505b505050565b600082821c905092915050565b60006200032a600019846008026200030a565b1980831691505092915050565b600062000345838362000317565b9150826002028217905092915050565b6200036082620000db565b67ffffffffffffffff8111156200037c576200037b620000e6565b5b62000388825462000144565b62000395828285620002ba565b600060209050601f831160018114620003cd5760008415620003b8578287015190505b620003c4858262000337565b86555062000434565b601f198416620003dd8662000179565b60005b828110156200040757848901518255600182019150602085019450602081019050620003e0565b8683101562000427578489015162000423601f89168262000317565b8355505b6001600288020188555050505b505050505050565b61426f806200044c6000396000f3fe60806040526004361061012a5760003560e01c806385535b25116100ab578063b88d4fde1161006f578063b88d4fde146103db578063be9af53614610404578063c18763f714610420578063c87b56dd1461044b578063e179144514610488578063e985e9c5146104b35761012a565b806385535b25146103245780638fafd0211461034057806395d89b411461036b578063a22cb46514610396578063ae677aa3146103bf5761012a565b806323b872dd116100f257806323b872dd1461022857806342842e0e146102515780636352211e1461027a57806370a08231146102b757806372b3b620146102f45761012a565b806301ffc9a71461012f57806306fdde031461016c578063081812fc14610197578063095ea7b3146101d457806312e85585146101fd575b600080fd5b34801561013b57600080fd5b5061015660048036038101906101519190612b7b565b6104f0565b6040516101639190612bc3565b60405180910390f35b34801561017857600080fd5b50610181610551565b60405161018e9190612c6e565b60405180910390f35b3480156101a357600080fd5b506101be60048036038101906101b99190612cc6565b6105e3565b6040516101cb9190612d34565b60405180910390f35b3480156101e057600080fd5b506101fb60048036038101906101f69190612d7b565b610629565b005b34801561020957600080fd5b50610212610740565b60405161021f9190612dca565b60405180910390f35b34801561023457600080fd5b5061024f600480360381019061024a9190612de5565b61074a565b005b34801561025d57600080fd5b5061027860048036038101906102739190612de5565b6107aa565b005b34801561028657600080fd5b506102a1600480360381019061029c9190612cc6565b6107ca565b6040516102ae9190612d34565b60405180910390f35b3480156102c357600080fd5b506102de60048036038101906102d99190612e38565b610850565b6040516102eb9190612dca565b60405180910390f35b61030e60048036038101906103099190612f9a565b610907565b60405161031b9190612dca565b60405180910390f35b61033e60048036038101906103399190612ff6565b610949565b005b34801561034c57600080fd5b50610355610b3e565b604051610362919061318c565b60405180910390f35b34801561037757600080fd5b50610380610da0565b60405161038d9190612c6e565b60405180910390f35b3480156103a257600080fd5b506103bd60048036038101906103b891906131da565b610e32565b005b6103d960048036038101906103d49190612cc6565b610e48565b005b3480156103e757600080fd5b5061040260048036038101906103fd91906132bb565b610ee2565b005b61041e60048036038101906104199190612cc6565b610f44565b005b34801561042c57600080fd5b50610435611186565b604051610442919061318c565b60405180910390f35b34801561045757600080fd5b50610472600480360381019061046d9190612cc6565b611466565b60405161047f9190612c6e565b60405180910390f35b34801561049457600080fd5b5061049d611578565b6040516104aa919061318c565b60405180910390f35b3480156104bf57600080fd5b506104da60048036038101906104d5919061333e565b611858565b6040516104e79190612bc3565b60405180910390f35b6000634906490660e01b7bffffffffffffffffffffffffffffffffffffffffffffffffffffffff1916827bffffffffffffffffffffffffffffffffffffffffffffffffffffffff1916148061054a5750610549826118ec565b5b9050919050565b606060008054610560906133ad565b80601f016020809104026020016040519081016040528092919081815260200182805461058c906133ad565b80156105d95780601f106105ae576101008083540402835291602001916105d9565b820191906000526020600020905b8154815290600101906020018083116105bc57829003601f168201915b5050505050905090565b60006105ee826119ce565b6004600083815260200190815260200160002060009054906101000a900473ffffffffffffffffffffffffffffffffffffffff169050919050565b6000610634826107ca565b90508073ffffffffffffffffffffffffffffffffffffffff168373ffffffffffffffffffffffffffffffffffffffff16036106a4576040517f08c379a000000000000000000000000000000000000000000000000000000000815260040161069b90613450565b60405180910390fd5b8073ffffffffffffffffffffffffffffffffffffffff166106c3611a19565b73ffffffffffffffffffffffffffffffffffffffff1614806106f257506106f1816106ec611a19565b611858565b5b610731576040517f08c379a0000000000000000000000000000000000000000000000000000000008152600401610728906134e2565b60405180910390fd5b61073b8383611a21565b505050565b6000600954905090565b61075b610755611a19565b82611ada565b61079a576040517f08c379a000000000000000000000000000000000000000000000000000000000815260040161079190613574565b60405180910390fd5b6107a5838383611b6f565b505050565b6107c583838360405180602001604052806000815250610ee2565b505050565b6000806107d683611e68565b9050600073ffffffffffffffffffffffffffffffffffffffff168173ffffffffffffffffffffffffffffffffffffffff1603610847576040517f08c379a000000000000000000000000000000000000000000000000000000000815260040161083e906135e0565b60405180910390fd5b80915050919050565b60008073ffffffffffffffffffffffffffffffffffffffff168273ffffffffffffffffffffffffffffffffffffffff16036108c0576040517f08c379a00000000000000000000000000000000000000000000000000000000081526004016108b790613672565b60405180910390fd5b600360008373ffffffffffffffffffffffffffffffffffffffff1673ffffffffffffffffffffffffffffffffffffffff168152602001908152602001600020549050919050565b60006109136007611ea5565b600061091f6007611ebb565b905061092b3382611ec9565b61093581856120e6565b61093f818461218a565b8091505092915050565b3373ffffffffffffffffffffffffffffffffffffffff16600b600084815260200190815260200160002060020160009054906101000a900473ffffffffffffffffffffffffffffffffffffffff1673ffffffffffffffffffffffffffffffffffffffff16146109ed576040517f08c379a00000000000000000000000000000000000000000000000000000000081526004016109e490613704565b60405180910390fd5b6009543414610a31576040517f08c379a0000000000000000000000000000000000000000000000000000000008152600401610a2890613796565b60405180910390fd5b6000600b600084815260200190815260200160002060040160006101000a81548160ff02191690831515021790555080600b60008481526020019081526020016000206003018190555033600b600084815260200190815260200160002060010160006101000a81548173ffffffffffffffffffffffffffffffffffffffff021916908373ffffffffffffffffffffffffffffffffffffffff16021790555030600b600084815260200190815260200160002060020160006101000a81548173ffffffffffffffffffffffffffffffffffffffff021916908373ffffffffffffffffffffffffffffffffffffffff160217905550610b2f600861238d565b610b3a333084611b6f565b5050565b60606000610b4c6007611ebb565b90506000610b5a6008611ebb565b610b646007611ebb565b610b6e91906137e5565b90506000808267ffffffffffffffff811115610b8d57610b8c612e6f565b5b604051908082528060200260200182016040528015610bc657816020015b610bb3612ab2565b815260200190600190039081610bab5790505b50905060005b84811015610d95573073ffffffffffffffffffffffffffffffffffffffff16600b6000600184610bfc9190613819565b815260200190815260200160002060020160009054906101000a900473ffffffffffffffffffffffffffffffffffffffff1673ffffffffffffffffffffffffffffffffffffffff1603610d88576000600182610c589190613819565b90506000600b60008381526020019081526020016000209050806040518060a0016040529081600082015481526020016001820160009054906101000a900473ffffffffffffffffffffffffffffffffffffffff1673ffffffffffffffffffffffffffffffffffffffff1673ffffffffffffffffffffffffffffffffffffffff1681526020016002820160009054906101000a900473ffffffffffffffffffffffffffffffffffffffff1673ffffffffffffffffffffffffffffffffffffffff1673ffffffffffffffffffffffffffffffffffffffff168152602001600382015481526020016004820160009054906101000a900460ff161515151581525050848681518110610d6b57610d6a61384d565b5b6020026020010181905250600185610d839190613819565b945050505b8080600101915050610bcc565b508094505050505090565b606060018054610daf906133ad565b80601f0160208091040260200160405190810160405280929190818152602001828054610ddb906133ad565b8015610e285780601f10610dfd57610100808354040283529160200191610e28565b820191906000526020600020905b815481529060010190602001808311610e0b57829003601f168201915b5050505050905090565b610e44610e3d611a19565b83836123e9565b5050565b600a60009054906101000a900473ffffffffffffffffffffffffffffffffffffffff1673ffffffffffffffffffffffffffffffffffffffff163373ffffffffffffffffffffffffffffffffffffffff1614610ed8576040517f08c379a0000000000000000000000000000000000000000000000000000000008152600401610ecf906138ee565b60405180910390fd5b8060098190555050565b610ef3610eed611a19565b83611ada565b610f32576040517f08c379a0000000000000000000000000000000000000000000000000000000008152600401610f2990613574565b60405180910390fd5b610f3e84848484612555565b50505050565b6000600b6000838152602001908152602001600020600301549050803414610fa1576040517f08c379a0000000000000000000000000000000000000000000000000000000008152600401610f9890613980565b60405180910390fd5b33600b600084815260200190815260200160002060020160006101000a81548173ffffffffffffffffffffffffffffffffffffffff021916908373ffffffffffffffffffffffffffffffffffffffff1602179055506001600b600084815260200190815260200160002060040160006101000a81548160ff0219169083151502179055506000600b600084815260200190815260200160002060020160006101000a81548173ffffffffffffffffffffffffffffffffffffffff021916908373ffffffffffffffffffffffffffffffffffffffff1602179055506110856008611ea5565b61108f3383610629565b61109a303384611b6f565b600a60009054906101000a900473ffffffffffffffffffffffffffffffffffffffff1673ffffffffffffffffffffffffffffffffffffffff166108fc6009549081150290604051600060405180830381858888f19350505050158015611104573d6000803e3d6000fd5b50600b600083815260200190815260200160002060010160009054906101000a900473ffffffffffffffffffffffffffffffffffffffff1673ffffffffffffffffffffffffffffffffffffffff166108fc349081150290604051600060405180830381858888f19350505050158015611181573d6000803e3d6000fd5b505050565b606060006111946007611ebb565b905060008060005b83811015611236573373ffffffffffffffffffffffffffffffffffffffff16600b60006001846111cc9190613819565b815260200190815260200160002060020160009054906101000a900473ffffffffffffffffffffffffffffffffffffffff1673ffffffffffffffffffffffffffffffffffffffff1603611229576001836112269190613819565b92505b808060010191505061119c565b5060008267ffffffffffffffff81111561125357611252612e6f565b5b60405190808252806020026020018201604052801561128c57816020015b611279612ab2565b8152602001906001900390816112715790505b50905060005b8481101561145b573373ffffffffffffffffffffffffffffffffffffffff16600b60006001846112c29190613819565b815260200190815260200160002060020160009054906101000a900473ffffffffffffffffffffffffffffffffffffffff1673ffffffffffffffffffffffffffffffffffffffff160361144e57600060018261131e9190613819565b90506000600b60008381526020019081526020016000209050806040518060a0016040529081600082015481526020016001820160009054906101000a900473ffffffffffffffffffffffffffffffffffffffff1673ffffffffffffffffffffffffffffffffffffffff1673ffffffffffffffffffffffffffffffffffffffff1681526020016002820160009054906101000a900473ffffffffffffffffffffffffffffffffffffffff1673ffffffffffffffffffffffffffffffffffffffff1673ffffffffffffffffffffffffffffffffffffffff168152602001600382015481526020016004820160009054906101000a900460ff1615151515815250508486815181106114315761143061384d565b5b60200260200101819052506001856114499190613819565b945050505b8080600101915050611292565b508094505050505090565b6060611471826119ce565b6000600660008481526020019081526020016000208054611491906133ad565b80601f01602080910402602001604051908101604052809291908181526020018280546114bd906133ad565b801561150a5780601f106114df5761010080835404028352916020019161150a565b820191906000526020600020905b8154815290600101906020018083116114ed57829003601f168201915b50505050509050600061151b6125b1565b90506000815103611530578192505050611573565b60008251111561156557808260405160200161154d9291906139dc565b60405160208183030381529060405292505050611573565b61156e846125c8565b925050505b919050565b606060006115866007611ebb565b905060008060005b83811015611628573373ffffffffffffffffffffffffffffffffffffffff16600b60006001846115be9190613819565b815260200190815260200160002060010160009054906101000a900473ffffffffffffffffffffffffffffffffffffffff1673ffffffffffffffffffffffffffffffffffffffff160361161b576001836116189190613819565b92505b808060010191505061158e565b5060008267ffffffffffffffff81111561164557611644612e6f565b5b60405190808252806020026020018201604052801561167e57816020015b61166b612ab2565b8152602001906001900390816116635790505b50905060005b8481101561184d573373ffffffffffffffffffffffffffffffffffffffff16600b60006001846116b49190613819565b815260200190815260200160002060010160009054906101000a900473ffffffffffffffffffffffffffffffffffffffff1673ffffffffffffffffffffffffffffffffffffffff16036118405760006001826117109190613819565b90506000600b60008381526020019081526020016000209050806040518060a0016040529081600082015481526020016001820160009054906101000a900473ffffffffffffffffffffffffffffffffffffffff1673ffffffffffffffffffffffffffffffffffffffff1673ffffffffffffffffffffffffffffffffffffffff1681526020016002820160009054906101000a900473ffffffffffffffffffffffffffffffffffffffff1673ffffffffffffffffffffffffffffffffffffffff1673ffffffffffffffffffffffffffffffffffffffff168152602001600382015481526020016004820160009054906101000a900460ff1615151515815250508486815181106118235761182261384d565b5b602002602001018190525060018561183b9190613819565b945050505b8080600101915050611684565b508094505050505090565b6000600560008473ffffffffffffffffffffffffffffffffffffffff1673ffffffffffffffffffffffffffffffffffffffff16815260200190815260200160002060008373ffffffffffffffffffffffffffffffffffffffff1673ffffffffffffffffffffffffffffffffffffffff16815260200190815260200160002060009054906101000a900460ff16905092915050565b60007f80ac58cd000000000000000000000000000000000000000000000000000000007bffffffffffffffffffffffffffffffffffffffffffffffffffffffff1916827bffffffffffffffffffffffffffffffffffffffffffffffffffffffff191614806119b757507f5b5e139f000000000000000000000000000000000000000000000000000000007bffffffffffffffffffffffffffffffffffffffffffffffffffffffff1916827bffffffffffffffffffffffffffffffffffffffffffffffffffffffff1916145b806119c757506119c682612630565b5b9050919050565b6119d78161269a565b611a16576040517f08c379a0000000000000000000000000000000000000000000000000000000008152600401611a0d906135e0565b60405180910390fd5b50565b600033905090565b816004600083815260200190815260200160002060006101000a81548173ffffffffffffffffffffffffffffffffffffffff021916908373ffffffffffffffffffffffffffffffffffffffff160217905550808273ffffffffffffffffffffffffffffffffffffffff16611a94836107ca565b73ffffffffffffffffffffffffffffffffffffffff167f8c5be1e5ebec7d5bd14f71427d1e84f3dd0314c0f7b2291e5b200ac8c7c3b92560405160405180910390a45050565b600080611ae6836107ca565b90508073ffffffffffffffffffffffffffffffffffffffff168473ffffffffffffffffffffffffffffffffffffffff161480611b285750611b278185611858565b5b80611b6657508373ffffffffffffffffffffffffffffffffffffffff16611b4e846105e3565b73ffffffffffffffffffffffffffffffffffffffff16145b91505092915050565b8273ffffffffffffffffffffffffffffffffffffffff16611b8f826107ca565b73ffffffffffffffffffffffffffffffffffffffff1614611be5576040517f08c379a0000000000000000000000000000000000000000000000000000000008152600401611bdc90613a72565b60405180910390fd5b600073ffffffffffffffffffffffffffffffffffffffff168273ffffffffffffffffffffffffffffffffffffffff1603611c54576040517f08c379a0000000000000000000000000000000000000000000000000000000008152600401611c4b90613b04565b60405180910390fd5b611c6183838360016126db565b8273ffffffffffffffffffffffffffffffffffffffff16611c81826107ca565b73ffffffffffffffffffffffffffffffffffffffff1614611cd7576040517f08c379a0000000000000000000000000000000000000000000000000000000008152600401611cce90613a72565b60405180910390fd5b6004600082815260200190815260200160002060006101000a81549073ffffffffffffffffffffffffffffffffffffffff02191690556001600360008573ffffffffffffffffffffffffffffffffffffffff1673ffffffffffffffffffffffffffffffffffffffff168152602001908152602001600020600082825403925050819055506001600360008473ffffffffffffffffffffffffffffffffffffffff1673ffffffffffffffffffffffffffffffffffffffff16815260200190815260200160002060008282540192505081905550816002600083815260200190815260200160002060006101000a81548173ffffffffffffffffffffffffffffffffffffffff021916908373ffffffffffffffffffffffffffffffffffffffff160217905550808273ffffffffffffffffffffffffffffffffffffffff168473ffffffffffffffffffffffffffffffffffffffff167fddf252ad1be2c89b69c2b068fc378daa952ba7f163c4a11628f55a4df523b3ef60405160405180910390a4611e6383838360016126e1565b505050565b60006002600083815260200190815260200160002060009054906101000a900473ffffffffffffffffffffffffffffffffffffffff169050919050565b6001816000016000828254019250508190555050565b600081600001549050919050565b600073ffffffffffffffffffffffffffffffffffffffff168273ffffffffffffffffffffffffffffffffffffffff1603611f38576040517f08c379a0000000000000000000000000000000000000000000000000000000008152600401611f2f90613b70565b60405180910390fd5b611f418161269a565b15611f81576040517f08c379a0000000000000000000000000000000000000000000000000000000008152600401611f7890613bdc565b60405180910390fd5b611f8f6000838360016126db565b611f988161269a565b15611fd8576040517f08c379a0000000000000000000000000000000000000000000000000000000008152600401611fcf90613bdc565b60405180910390fd5b6001600360008473ffffffffffffffffffffffffffffffffffffffff1673ffffffffffffffffffffffffffffffffffffffff16815260200190815260200160002060008282540192505081905550816002600083815260200190815260200160002060006101000a81548173ffffffffffffffffffffffffffffffffffffffff021916908373ffffffffffffffffffffffffffffffffffffffff160217905550808273ffffffffffffffffffffffffffffffffffffffff16600073ffffffffffffffffffffffffffffffffffffffff167fddf252ad1be2c89b69c2b068fc378daa952ba7f163c4a11628f55a4df523b3ef60405160405180910390a46120e26000838360016126e1565b5050565b6120ef8261269a565b61212e576040517f08c379a000000000000000000000000000000000000000000000000000000000815260040161212590613c6e565b60405180910390fd5b8060066000848152602001908152602001600020908161214e9190613e3a565b507ff8e1a15aba9398e019f0b49df1a4fde98ee17ae345cb5f6b5e2c27f5033e8ce78260405161217e9190612dca565b60405180910390a15050565b600081116121cd576040517f08c379a00000000000000000000000000000000000000000000000000000000081526004016121c490613f58565b60405180910390fd5b6009543414612211576040517f08c379a000000000000000000000000000000000000000000000000000000000815260040161220890613796565b60405180910390fd5b6040518060a001604052808381526020013373ffffffffffffffffffffffffffffffffffffffff1681526020013073ffffffffffffffffffffffffffffffffffffffff16815260200182815260200160001515815250600b60008481526020019081526020016000206000820151816000015560208201518160010160006101000a81548173ffffffffffffffffffffffffffffffffffffffff021916908373ffffffffffffffffffffffffffffffffffffffff16021790555060408201518160020160006101000a81548173ffffffffffffffffffffffffffffffffffffffff021916908373ffffffffffffffffffffffffffffffffffffffff1602179055506060820151816003015560808201518160040160006101000a81548160ff02191690831515021790555090505061234a333084611b6f565b817fdebdb32cb5230ab727c9c361b16fdb2015df225c10e6a3e7f60ecd5dc5be451633308460006040516123819493929190613f78565b60405180910390a25050565b600081600001549050600081116123d9576040517f08c379a00000000000000000000000000000000000000000000000000000000081526004016123d090614009565b60405180910390fd5b6001810382600001819055505050565b8173ffffffffffffffffffffffffffffffffffffffff168373ffffffffffffffffffffffffffffffffffffffff1603612457576040517f08c379a000000000000000000000000000000000000000000000000000000000815260040161244e90614075565b60405180910390fd5b80600560008573ffffffffffffffffffffffffffffffffffffffff1673ffffffffffffffffffffffffffffffffffffffff16815260200190815260200160002060008473ffffffffffffffffffffffffffffffffffffffff1673ffffffffffffffffffffffffffffffffffffffff16815260200190815260200160002060006101000a81548160ff0219169083151502179055508173ffffffffffffffffffffffffffffffffffffffff168373ffffffffffffffffffffffffffffffffffffffff167f17307eab39ab6107e8899845ad3d59bd9653f200f220920489ca2b5937696c31836040516125489190612bc3565b60405180910390a3505050565b612560848484611b6f565b61256c848484846126e7565b6125ab576040517f08c379a00000000000000000000000000000000000000000000000000000000081526004016125a290614107565b60405180910390fd5b50505050565b606060405180602001604052806000815250905090565b60606125d3826119ce565b60006125dd6125b1565b905060008151116125fd5760405180602001604052806000815250612628565b806126078461286e565b6040516020016126189291906139dc565b6040516020818303038152906040525b915050919050565b60007f01ffc9a7000000000000000000000000000000000000000000000000000000007bffffffffffffffffffffffffffffffffffffffffffffffffffffffff1916827bffffffffffffffffffffffffffffffffffffffffffffffffffffffff1916149050919050565b60008073ffffffffffffffffffffffffffffffffffffffff166126bc83611e68565b73ffffffffffffffffffffffffffffffffffffffff1614159050919050565b50505050565b50505050565b60006127088473ffffffffffffffffffffffffffffffffffffffff1661293c565b15612861578373ffffffffffffffffffffffffffffffffffffffff1663150b7a02612731611a19565b8786866040518563ffffffff1660e01b8152600401612753949392919061417c565b6020604051808303816000875af192505050801561278f57506040513d601f19601f8201168201806040525081019061278c91906141dd565b60015b612811573d80600081146127bf576040519150601f19603f3d011682016040523d82523d6000602084013e6127c4565b606091505b506000815103612809576040517f08c379a000000000000000000000000000000000000000000000000000000000815260040161280090614107565b60405180910390fd5b805181602001fd5b63150b7a0260e01b7bffffffffffffffffffffffffffffffffffffffffffffffffffffffff1916817bffffffffffffffffffffffffffffffffffffffffffffffffffffffff191614915050612866565b600190505b949350505050565b60606000600161287d8461295f565b01905060008167ffffffffffffffff81111561289c5761289b612e6f565b5b6040519080825280601f01601f1916602001820160405280156128ce5781602001600182028036833780820191505090505b509050600082602001820190505b600115612931578080600190039150507f3031323334353637383961626364656600000000000000000000000000000000600a86061a8153600a85816129255761292461420a565b5b049450600085036128dc575b819350505050919050565b6000808273ffffffffffffffffffffffffffffffffffffffff163b119050919050565b600080600090507a184f03e93ff9f4daa797ed6e38ed64bf6a1f01000000000000000083106129bd577a184f03e93ff9f4daa797ed6e38ed64bf6a1f01000000000000000083816129b3576129b261420a565b5b0492506040810190505b6d04ee2d6d415b85acef810000000083106129fa576d04ee2d6d415b85acef810000000083816129f0576129ef61420a565b5b0492506020810190505b662386f26fc100008310612a2957662386f26fc100008381612a1f57612a1e61420a565b5b0492506010810190505b6305f5e1008310612a52576305f5e1008381612a4857612a4761420a565b5b0492506008810190505b6127108310612a77576127108381612a6d57612a6c61420a565b5b0492506004810190505b60648310612a9a5760648381612a9057612a8f61420a565b5b0492506002810190505b600a8310612aa9576001810190505b80915050919050565b6040518060a0016040528060008152602001600073ffffffffffffffffffffffffffffffffffffffff168152602001600073ffffffffffffffffffffffffffffffffffffffff168152602001600081526020016000151581525090565b6000604051905090565b600080fd5b600080fd5b60007fffffffff0000000000000000000000000000000000000000000000000000000082169050919050565b612b5881612b23565b8114612b6357600080fd5b50565b600081359050612b7581612b4f565b92915050565b600060208284031215612b9157612b90612b19565b5b6000612b9f84828501612b66565b91505092915050565b60008115159050919050565b612bbd81612ba8565b82525050565b6000602082019050612bd86000830184612bb4565b92915050565b600081519050919050565b600082825260208201905092915050565b60005b83811015612c18578082015181840152602081019050612bfd565b60008484015250505050565b6000601f19601f8301169050919050565b6000612c4082612bde565b612c4a8185612be9565b9350612c5a818560208601612bfa565b612c6381612c24565b840191505092915050565b60006020820190508181036000830152612c888184612c35565b905092915050565b6000819050919050565b612ca381612c90565b8114612cae57600080fd5b50565b600081359050612cc081612c9a565b92915050565b600060208284031215612cdc57612cdb612b19565b5b6000612cea84828501612cb1565b91505092915050565b600073ffffffffffffffffffffffffffffffffffffffff82169050919050565b6000612d1e82612cf3565b9050919050565b612d2e81612d13565b82525050565b6000602082019050612d496000830184612d25565b92915050565b612d5881612d13565b8114612d6357600080fd5b50565b600081359050612d7581612d4f565b92915050565b60008060408385031215612d9257612d91612b19565b5b6000612da085828601612d66565b9250506020612db185828601612cb1565b9150509250929050565b612dc481612c90565b82525050565b6000602082019050612ddf6000830184612dbb565b92915050565b600080600060608486031215612dfe57612dfd612b19565b5b6000612e0c86828701612d66565b9350506020612e1d86828701612d66565b9250506040612e2e86828701612cb1565b9150509250925092565b600060208284031215612e4e57612e4d612b19565b5b6000612e5c84828501612d66565b91505092915050565b600080fd5b600080fd5b7f4e487b7100000000000000000000000000000000000000000000000000000000600052604160045260246000fd5b612ea782612c24565b810181811067ffffffffffffffff82111715612ec657612ec5612e6f565b5b80604052505050565b6000612ed9612b0f565b9050612ee58282612e9e565b919050565b600067ffffffffffffffff821115612f0557612f04612e6f565b5b612f0e82612c24565b9050602081019050919050565b82818337600083830152505050565b6000612f3d612f3884612eea565b612ecf565b905082815260208101848484011115612f5957612f58612e6a565b5b612f64848285612f1b565b509392505050565b600082601f830112612f8157612f80612e65565b5b8135612f91848260208601612f2a565b91505092915050565b60008060408385031215612fb157612fb0612b19565b5b600083013567ffffffffffffffff811115612fcf57612fce612b1e565b5b612fdb85828601612f6c565b9250506020612fec85828601612cb1565b9150509250929050565b6000806040838503121561300d5761300c612b19565b5b600061301b85828601612cb1565b925050602061302c85828601612cb1565b9150509250929050565b600081519050919050565b600082825260208201905092915050565b6000819050602082019050919050565b61306b81612c90565b82525050565b600061307c82612cf3565b9050919050565b61308c81613071565b82525050565b61309b81612ba8565b82525050565b60a0820160008201516130b76000850182613062565b5060208201516130ca6020850182613083565b5060408201516130dd6040850182613083565b5060608201516130f06060850182613062565b5060808201516131036080850182613092565b50505050565b600061311583836130a1565b60a08301905092915050565b6000602082019050919050565b600061313982613036565b6131438185613041565b935061314e83613052565b8060005b8381101561317f5781516131668882613109565b975061317183613121565b925050600181019050613152565b5085935050505092915050565b600060208201905081810360008301526131a6818461312e565b905092915050565b6131b781612ba8565b81146131c257600080fd5b50565b6000813590506131d4816131ae565b92915050565b600080604083850312156131f1576131f0612b19565b5b60006131ff85828601612d66565b9250506020613210858286016131c5565b9150509250929050565b600067ffffffffffffffff82111561323557613234612e6f565b5b61323e82612c24565b9050602081019050919050565b600061325e6132598461321a565b612ecf565b90508281526020810184848401111561327a57613279612e6a565b5b613285848285612f1b565b509392505050565b600082601f8301126132a2576132a1612e65565b5b81356132b284826020860161324b565b91505092915050565b600080600080608085870312156132d5576132d4612b19565b5b60006132e387828801612d66565b94505060206132f487828801612d66565b935050604061330587828801612cb1565b925050606085013567ffffffffffffffff81111561332657613325612b1e565b5b6133328782880161328d565b91505092959194509250565b6000806040838503121561335557613354612b19565b5b600061336385828601612d66565b925050602061337485828601612d66565b9150509250929050565b7f4e487b7100000000000000000000000000000000000000000000000000000000600052602260045260246000fd5b600060028204905060018216806133c557607f821691505b6020821081036133d8576133d761337e565b5b50919050565b7f4552433732313a20617070726f76616c20746f2063757272656e74206f776e6560008201527f7200000000000000000000000000000000000000000000000000000000000000602082015250565b600061343a602183612be9565b9150613445826133de565b604082019050919050565b600060208201905081810360008301526134698161342d565b9050919050565b7f4552433732313a20617070726f76652063616c6c6572206973206e6f7420746f60008201527f6b656e206f776e6572206f7220617070726f76656420666f7220616c6c000000602082015250565b60006134cc603d83612be9565b91506134d782613470565b604082019050919050565b600060208201905081810360008301526134fb816134bf565b9050919050565b7f4552433732313a2063616c6c6572206973206e6f7420746f6b656e206f776e6560008201527f72206f7220617070726f76656400000000000000000000000000000000000000602082015250565b600061355e602d83612be9565b915061356982613502565b604082019050919050565b6000602082019050818103600083015261358d81613551565b9050919050565b7f4552433732313a20696e76616c696420746f6b656e2049440000000000000000600082015250565b60006135ca601883612be9565b91506135d582613594565b602082019050919050565b600060208201905081810360008301526135f9816135bd565b9050919050565b7f4552433732313a2061646472657373207a65726f206973206e6f74206120766160008201527f6c6964206f776e65720000000000000000000000000000000000000000000000602082015250565b600061365c602983612be9565b915061366782613600565b604082019050919050565b6000602082019050818103600083015261368b8161364f565b9050919050565b7f4f6e6c79206974656d206f776e65722063616e20706572666f726d207468697360008201527f206f7065726174696f6e00000000000000000000000000000000000000000000602082015250565b60006136ee602a83612be9565b91506136f982613692565b604082019050919050565b6000602082019050818103600083015261371d816136e1565b9050919050565b7f5072696365206d75737420626520657175616c20746f206c697374696e67207060008201527f7269636500000000000000000000000000000000000000000000000000000000602082015250565b6000613780602483612be9565b915061378b82613724565b604082019050919050565b600060208201905081810360008301526137af81613773565b9050919050565b7f4e487b7100000000000000000000000000000000000000000000000000000000600052601160045260246000fd5b60006137f082612c90565b91506137fb83612c90565b9250828203905081811115613813576138126137b6565b5b92915050565b600061382482612c90565b915061382f83612c90565b9250828201905080821115613847576138466137b6565b5b92915050565b7f4e487b7100000000000000000000000000000000000000000000000000000000600052603260045260246000fd5b7f6f6e6c79206f776e6572206f6620746865206d61726b6574706c61636520636160008201527f6e206368616e676520746865206c697374696e67207072696365000000000000602082015250565b60006138d8603a83612be9565b91506138e38261387c565b604082019050919050565b60006020820190508181036000830152613907816138cb565b9050919050565b7f506c65617365207375626d6974207468652061736b696e67207072696365206960008201527f6e206f7264657220746f20636f6d706c65746520746865207072696365000000602082015250565b600061396a603d83612be9565b91506139758261390e565b604082019050919050565b600060208201905081810360008301526139998161395d565b9050919050565b600081905092915050565b60006139b682612bde565b6139c081856139a0565b93506139d0818560208601612bfa565b80840191505092915050565b60006139e882856139ab565b91506139f482846139ab565b91508190509392505050565b7f4552433732313a207472616e736665722066726f6d20696e636f72726563742060008201527f6f776e6572000000000000000000000000000000000000000000000000000000602082015250565b6000613a5c602583612be9565b9150613a6782613a00565b604082019050919050565b60006020820190508181036000830152613a8b81613a4f565b9050919050565b7f4552433732313a207472616e7366657220746f20746865207a65726f2061646460008201527f7265737300000000000000000000000000000000000000000000000000000000602082015250565b6000613aee602483612be9565b9150613af982613a92565b604082019050919050565b60006020820190508181036000830152613b1d81613ae1565b9050919050565b7f4552433732313a206d696e7420746f20746865207a65726f2061646472657373600082015250565b6000613b5a602083612be9565b9150613b6582613b24565b602082019050919050565b60006020820190508181036000830152613b8981613b4d565b9050919050565b7f4552433732313a20746f6b656e20616c7265616479206d696e74656400000000600082015250565b6000613bc6601c83612be9565b9150613bd182613b90565b602082019050919050565b60006020820190508181036000830152613bf581613bb9565b9050919050565b7f45524337323155524953746f726167653a2055524920736574206f66206e6f6e60008201527f6578697374656e7420746f6b656e000000000000000000000000000000000000602082015250565b6000613c58602e83612be9565b9150613c6382613bfc565b604082019050919050565b60006020820190508181036000830152613c8781613c4b565b9050919050565b60008190508160005260206000209050919050565b60006020601f8301049050919050565b600082821b905092915050565b600060088302613cf07fffffffffffffffffffffffffffffffffffffffffffffffffffffffffffffffff82613cb3565b613cfa8683613cb3565b95508019841693508086168417925050509392505050565b6000819050919050565b6000613d37613d32613d2d84612c90565b613d12565b612c90565b9050919050565b6000819050919050565b613d5183613d1c565b613d65613d5d82613d3e565b848454613cc0565b825550505050565b600090565b613d7a613d6d565b613d85818484613d48565b505050565b5b81811015613da957613d9e600082613d72565b600181019050613d8b565b5050565b601f821115613dee57613dbf81613c8e565b613dc884613ca3565b81016020851015613dd7578190505b613deb613de385613ca3565b830182613d8a565b50505b505050565b600082821c905092915050565b6000613e1160001984600802613df3565b1980831691505092915050565b6000613e2a8383613e00565b9150826002028217905092915050565b613e4382612bde565b67ffffffffffffffff811115613e5c57613e5b612e6f565b5b613e6682546133ad565b613e71828285613dad565b600060209050601f831160018114613ea45760008415613e92578287015190505b613e9c8582613e1e565b865550613f04565b601f198416613eb286613c8e565b60005b82811015613eda57848901518255600182019150602085019450602081019050613eb5565b86831015613ef75784890151613ef3601f891682613e00565b8355505b6001600288020188555050505b505050505050565b7f7072696365206d757374206265206174206c6573742031000000000000000000600082015250565b6000613f42601783612be9565b9150613f4d82613f0c565b602082019050919050565b60006020820190508181036000830152613f7181613f35565b9050919050565b6000608082019050613f8d6000830187612d25565b613f9a6020830186612d25565b613fa76040830185612dbb565b613fb46060830184612bb4565b95945050505050565b7f436f756e7465723a2064656372656d656e74206f766572666c6f770000000000600082015250565b6000613ff3601b83612be9565b9150613ffe82613fbd565b602082019050919050565b6000602082019050818103600083015261402281613fe6565b9050919050565b7f4552433732313a20617070726f766520746f2063616c6c657200000000000000600082015250565b600061405f601983612be9565b915061406a82614029565b602082019050919050565b6000602082019050818103600083015261408e81614052565b9050919050565b7f4552433732313a207472616e7366657220746f206e6f6e20455243373231526560008201527f63656976657220696d706c656d656e7465720000000000000000000000000000602082015250565b60006140f1603283612be9565b91506140fc82614095565b604082019050919050565b60006020820190508181036000830152614120816140e4565b9050919050565b600081519050919050565b600082825260208201905092915050565b600061414e82614127565b6141588185614132565b9350614168818560208601612bfa565b61417181612c24565b840191505092915050565b60006080820190506141916000830187612d25565b61419e6020830186612d25565b6141ab6040830185612dbb565b81810360608301526141bd8184614143565b905095945050505050565b6000815190506141d781612b4f565b92915050565b6000602082840312156141f3576141f2612b19565b5b6000614201848285016141c8565b91505092915050565b7f4e487b7100000000000000000000000000000000000000000000000000000000600052601260045260246000fdfea264697066735822122002fcea5148ad3df4099d06dc7c30d6ec802ac86c9a156e353fbe291b0464497a64736f6c63430008180033",
  "linkReferences": {},
  "deployedLinkReferences": {}
}