{
  "_format": "hh-sol-artifact-1",
  "contractName": "NFTMarketplace",
  "sourceName": "contracts/NFTMarketplace.sol",
  "abi": [
    {
      "inputs": [],
      "stateMutability": "nonpayable",
      "type": "constructor"
    },
    {
      "anonymous": false,
      "inputs": [
        {
          "indexed": true,
          "internalType": "address",
          "name": "owner",
          "type": "address"
        },
        {
          "indexed": true,
          "internalType": "address",
          "name": "approved",
          "type": "address"
        },
        {
          "indexed": true,
          "internalType": "uint256",
          "name": "tokenId",
          "type": "uint256"
        }
      ],
      "name": "Approval",
      "type": "event"
    },
    {
      "anonymous": false,
      "inputs": [
        {
          "indexed": true,
          "internalType": "address",
          "name": "owner",
          "type": "address"
        },
        {
          "indexed": true,
          "internalType": "address",
          "name": "operator",
          "type": "address"
        },
        {
          "indexed": false,
          "internalType": "bool",
          "name": "approved",
          "type": "bool"
        }
      ],
      "name": "ApprovalForAll",
      "type": "event"
    },
    {
      "anonymous": false,
      "inputs": [
        {
          "indexed": false,
          "internalType": "uint256",
          "name": "_fromTokenId",
          "type": "uint256"
        },
        {
          "indexed": false,
          "internalType": "uint256",
          "name": "_toTokenId",
          "type": "uint256"
        }
      ],
      "name": "BatchMetadataUpdate",
      "type": "event"
    },
    {
      "anonymous": false,
      "inputs": [
        {
          "indexed": false,
          "internalType": "uint256",
          "name": "_tokenId",
          "type": "uint256"
        }
      ],
      "name": "MetadataUpdate",
      "type": "event"
    },
    {
      "anonymous": false,
      "inputs": [
        {
          "indexed": true,
          "internalType": "address",
          "name": "from",
          "type": "address"
        },
        {
          "indexed": true,
          "internalType": "address",
          "name": "to",
          "type": "address"
        },
        {
          "indexed": true,
          "internalType": "uint256",
          "name": "tokenId",
          "type": "uint256"
        }
      ],
      "name": "Transfer",
      "type": "event"
    },
    {
      "anonymous": false,
      "inputs": [
        {
          "indexed": true,
          "internalType": "uint256",
          "name": "tokenId",
          "type": "uint256"
        },
        {
          "indexed": false,
          "internalType": "address",
          "name": "seller",
          "type": "address"
        },
        {
          "indexed": false,
          "internalType": "address",
          "name": "owner",
          "type": "address"
        },
        {
          "indexed": false,
          "internalType": "uint256",
          "name": "price",
          "type": "uint256"
        },
        {
          "indexed": false,
          "internalType": "bool",
          "name": "sold",
          "type": "bool"
        }
      ],
      "name": "idMarketItemCreated",
      "type": "event"
    },
    {
      "inputs": [
        {
          "internalType": "address",
          "name": "to",
          "type": "address"
        },
        {
          "internalType": "uint256",
          "name": "tokenId",
          "type": "uint256"
        }
      ],
      "name": "approve",
      "outputs": [],
      "stateMutability": "nonpayable",
      "type": "function"
    },
    {
      "inputs": [
        {
          "internalType": "address",
          "name": "owner",
          "type": "address"
        }
      ],
      "name": "balanceOf",
      "outputs": [
        {
          "internalType": "uint256",
          "name": "",
          "type": "uint256"
        }
      ],
      "stateMutability": "view",
      "type": "function"
    },
    {
      "inputs": [
        {
          "internalType": "uint256",
          "name": "tokenId",
          "type": "uint256"
        }
      ],
      "name": "createMarketSale",
      "outputs": [],
      "stateMutability": "payable",
      "type": "function"
    },
    {
      "inputs": [
        {
          "internalType": "string",
          "name": "tokenURI",
          "type": "string"
        },
        {
          "internalType": "uint256",
          "name": "price",
          "type": "uint256"
        }
      ],
      "name": "createToken",
      "outputs": [
        {
          "internalType": "uint256",
          "name": "",
          "type": "uint256"
        }
      ],
      "stateMutability": "payable",
      "type": "function"
    },
    {
      "inputs": [],
      "name": "fetchItemListed",
      "outputs": [
        {
          "components": [
            {
              "internalType": "uint256",
              "name": "tokenId",
              "type": "uint256"
            },
            {
              "internalType": "address payable",
              "name": "seller",
              "type": "address"
            },
            {
              "internalType": "address payable",
              "name": "owner",
              "type": "address"
            },
            {
              "internalType": "uint256",
              "name": "price",
              "type": "uint256"
            },
            {
              "internalType": "bool",
              "name": "sold",
              "type": "bool"
            }
          ],
          "internalType": "struct NFTMarketplace.MarketItem[]",
          "name": "",
          "type": "tuple[]"
        }
      ],
      "stateMutability": "view",
      "type": "function"
    },
    {
      "inputs": [],
      "name": "fetchMarketItem",
      "outputs": [
        {
          "components": [
            {
              "internalType": "uint256",
              "name": "tokenId",
              "type": "uint256"
            },
            {
              "internalType": "address payable",
              "name": "seller",
              "type": "address"
            },
            {
              "internalType": "address payable",
              "name": "owner",
              "type": "address"
            },
            {
              "internalType": "uint256",
              "name": "price",
              "type": "uint256"
            },
            {
              "internalType": "bool",
              "name": "sold",
              "type": "bool"
            }
          ],
          "internalType": "struct NFTMarketplace.MarketItem[]",
          "name": "",
          "type": "tuple[]"
        }
      ],
      "stateMutability": "view",
      "type": "function"
    },
    {
      "inputs": [],
      "name": "fetchMyNFT",
      "outputs": [
        {
          "components": [
            {
              "internalType": "uint256",
              "name": "tokenId",
              "type": "uint256"
            },
            {
              "internalType": "address payable",
              "name": "seller",
              "type": "address"
            },
            {
              "internalType": "address payable",
              "name": "owner",
              "type": "address"
            },
            {
              "internalType": "uint256",
              "name": "price",
              "type": "uint256"
            },
            {
              "internalType": "bool",
              "name": "sold",
              "type": "bool"
            }
          ],
          "internalType": "struct NFTMarketplace.MarketItem[]",
          "name": "",
          "type": "tuple[]"
        }
      ],
      "stateMutability": "view",
      "type": "function"
    },
    {
      "inputs": [
        {
          "internalType": "uint256",
          "name": "tokenId",
          "type": "uint256"
        }
      ],
      "name": "getApproved",
      "outputs": [
        {
          "internalType": "address",
          "name": "",
          "type": "address"
        }
      ],
      "stateMutability": "view",
      "type": "function"
    },
    {
      "inputs": [],
      "name": "getListingPrice",
      "outputs": [
        {
          "internalType": "uint256",
          "name": "",
          "type": "uint256"
        }
      ],
      "stateMutability": "view",
      "type": "function"
    },
    {
      "inputs": [
        {
          "internalType": "address",
          "name": "owner",
          "type": "address"
        },
        {
          "internalType": "address",
          "name": "operator",
          "type": "address"
        }
      ],
      "name": "isApprovedForAll",
      "outputs": [
        {
          "internalType": "bool",
          "name": "",
          "type": "bool"
        }
      ],
      "stateMutability": "view",
      "type": "function"
    },
    {
      "inputs": [],
      "name": "name",
      "outputs": [
        {
          "internalType": "string",
          "name": "",
          "type": "string"
        }
      ],
      "stateMutability": "view",
      "type": "function"
    },
    {
      "inputs": [
        {
          "internalType": "uint256",
          "name": "tokenId",
          "type": "uint256"
        }
      ],
      "name": "ownerOf",
      "outputs": [
        {
          "internalType": "address",
          "name": "",
          "type": "address"
        }
      ],
      "stateMutability": "view",
      "type": "function"
    },
    {
      "inputs": [
        {
          "internalType": "uint256",
          "name": "tokenId",
          "type": "uint256"
        },
        {
          "internalType": "uint256",
          "name": "price",
          "type": "uint256"
        }
      ],
      "name": "reSellToken",
      "outputs": [],
      "stateMutability": "payable",
      "type": "function"
    },
    {
      "inputs": [
        {
          "internalType": "address",
          "name": "from",
          "type": "address"
        },
        {
          "internalType": "address",
          "name": "to",
          "type": "address"
        },
        {
          "internalType": "uint256",
          "name": "tokenId",
          "type": "uint256"
        }
      ],
      "name": "safeTransferFrom",
      "outputs": [],
      "stateMutability": "nonpayable",
      "type": "function"
    },
    {
      "inputs": [
        {
          "internalType": "address",
          "name": "from",
          "type": "address"
        },
        {
          "internalType": "address",
          "name": "to",
          "type": "address"
        },
        {
          "internalType": "uint256",
          "name": "tokenId",
          "type": "uint256"
        },
        {
          "internalType": "bytes",
          "name": "data",
          "type": "bytes"
        }
      ],
      "name": "safeTransferFrom",
      "outputs": [],
      "stateMutability": "nonpayable",
      "type": "function"
    },
    {
      "inputs": [
        {
          "internalType": "address",
          "name": "operator",
          "type": "address"
        },
        {
          "internalType": "bool",
          "name": "approved",
          "type": "bool"
        }
      ],
      "name": "setApprovalForAll",
      "outputs": [],
      "stateMutability": "nonpayable",
      "type": "function"
    },
    {
      "inputs": [
        {
          "internalType": "bytes4",
          "name": "interfaceId",
          "type": "bytes4"
        }
      ],
      "name": "supportsInterface",
      "outputs": [
        {
          "internalType": "bool",
          "name": "",
          "type": "bool"
        }
      ],
      "stateMutability": "view",
      "type": "function"
    },
    {
      "inputs": [],
      "name": "symbol",
      "outputs": [
        {
          "internalType": "string",
          "name": "",
          "type": "string"
        }
      ],
      "stateMutability": "view",
      "type": "function"
    },
    {
      "inputs": [
        {
          "internalType": "uint256",
          "name": "tokenId",
          "type": "uint256"
        }
      ],
      "name": "tokenURI",
      "outputs": [
        {
          "internalType": "string",
          "name": "",
          "type": "string"
        }
      ],
      "stateMutability": "view",
      "type": "function"
    },
    {
      "inputs": [
        {
          "internalType": "address",
          "name": "from",
          "type": "address"
        },
        {
          "internalType": "address",
          "name": "to",
          "type": "address"
        },
        {
          "internalType": "uint256",
          "name": "tokenId",
          "type": "uint256"
        }
      ],
      "name": "transferFrom",
      "outputs": [],
      "stateMutability": "nonpayable",
      "type": "function"
    },
    {
      "inputs": [
        {
          "internalType": "uint256",
          "name": "_listingPrice",
          "type": "uint256"
        }
      ],
      "name": "updateListingPrice",
      "outputs": [],
      "stateMutability": "payable",
      "type": "function"
    }
  ],
  "bytecode": "0x60806040526605543df729c0006009553480156200001c57600080fd5b506040518060400160405280601381526020017f4e4654204d657461766172736520546f6b656e000000000000000000000000008152506040518060400160405280600581526020017f4d594e465400000000000000000000000000000000000000000000000000000081525081600090816200009a919062000355565b508060019081620000ac919062000355565b5050503373ffffffffffffffffffffffffffffffffffffffff16600a60009054906101000a905050506200043c565b600081519050919050565b7f4e487b7100000000000000000000000000000000000000000000000000000000600052604160045260246000fd5b7f4e487b7100000000000000000000000000000000000000000000000000000000600052602260045260246000fd5b600060028204905060018216806200015d57607f821691505b60208210810362000173576200017262000115565b5b50919050565b60008190508160005260206000209050919050565b60006020601f8301049050919050565b600082821b905092915050565b600060088302620001dd7fffffffffffffffffffffffffffffffffffffffffffffffffffffffffffffffff826200019e565b620001e986836200019e565b95508019841693508086168417925050509392505050565b6000819050919050565b6000819050919050565b600062000236620002306200022a8462000201565b6200020b565b62000201565b9050919050565b6000819050919050565b620002528362000215565b6200026a62000261826200023d565b848454620001ab565b825550505050565b600090565b6200028162000272565b6200028e81848462000247565b505050565b5b81811015620002b657620002aa60008262000277565b60018101905062000294565b5050565b601f8211156200030557620002cf8162000179565b620002da846200018e565b81016020851015620002ea578190505b62000302620002f9856200018e565b83018262000293565b50505b505050565b600082821c905092915050565b60006200032a600019846008026200030a565b1980831691505092915050565b600062000345838362000317565b9150826002028217905092915050565b6200036082620000db565b67ffffffffffffffff8111156200037c576200037b620000e6565b5b62000388825462000144565b62000395828285620002ba565b600060209050601f831160018114620003cd5760008415620003b8578287015190505b620003c4858262000337565b86555062000434565b601f198416620003dd8662000179565b60005b828110156200040757848901518255600182019150602085019450602081019050620003e0565b8683101562000427578489015162000423601f89168262000317565b8355505b6001600288020188555050505b505050505050565b614265806200044c6000396000f3fe60806040526004361061012a5760003560e01c806385535b25116100ab578063b88d4fde1161006f578063b88d4fde146103db578063be9af53614610404578063c18763f714610420578063c87b56dd1461044b578063e179144514610488578063e985e9c5146104b35761012a565b806385535b25146103245780638fafd0211461034057806395d89b411461036b578063a22cb46514610396578063ae677aa3146103bf5761012a565b806323b872dd116100f257806323b872dd1461022857806342842e0e146102515780636352211e1461027a57806370a08231146102b757806372b3b620146102f45761012a565b806301ffc9a71461012f57806306fdde031461016c578063081812fc14610197578063095ea7b3146101d457806312e85585146101fd575b600080fd5b34801561013b57600080fd5b5061015660048036038101906101519190612b71565b6104f0565b6040516101639190612bb9565b60405180910390f35b34801561017857600080fd5b50610181610551565b60405161018e9190612c64565b60405180910390f35b3480156101a357600080fd5b506101be60048036038101906101b99190612cbc565b6105e3565b6040516101cb9190612d2a565b60405180910390f35b3480156101e057600080fd5b506101fb60048036038101906101f69190612d71565b610629565b005b34801561020957600080fd5b50610212610740565b60405161021f9190612dc0565b60405180910390f35b34801561023457600080fd5b5061024f600480360381019061024a9190612ddb565b61074a565b005b34801561025d57600080fd5b5061027860048036038101906102739190612ddb565b6107aa565b005b34801561028657600080fd5b506102a1600480360381019061029c9190612cbc565b6107ca565b6040516102ae9190612d2a565b60405180910390f35b3480156102c357600080fd5b506102de60048036038101906102d99190612e2e565b610850565b6040516102eb9190612dc0565b60405180910390f35b61030e60048036038101906103099190612f90565b610907565b60405161031b9190612dc0565b60405180910390f35b61033e60048036038101906103399190612fec565b610949565b005b34801561034c57600080fd5b50610355610b3e565b6040516103629190613182565b60405180910390f35b34801561037757600080fd5b50610380610da0565b60405161038d9190612c64565b60405180910390f35b3480156103a257600080fd5b506103bd60048036038101906103b891906131d0565b610e32565b005b6103d960048036038101906103d49190612cbc565b610e48565b005b3480156103e757600080fd5b5061040260048036038101906103fd91906132b1565b610ee2565b005b61041e60048036038101906104199190612cbc565b610f44565b005b34801561042c57600080fd5b5061043561117c565b6040516104429190613182565b60405180910390f35b34801561045757600080fd5b50610472600480360381019061046d9190612cbc565b61145c565b60405161047f9190612c64565b60405180910390f35b34801561049457600080fd5b5061049d61156e565b6040516104aa9190613182565b60405180910390f35b3480156104bf57600080fd5b506104da60048036038101906104d59190613334565b61184e565b6040516104e79190612bb9565b60405180910390f35b6000634906490660e01b7bffffffffffffffffffffffffffffffffffffffffffffffffffffffff1916827bffffffffffffffffffffffffffffffffffffffffffffffffffffffff1916148061054a5750610549826118e2565b5b9050919050565b606060008054610560906133a3565b80601f016020809104026020016040519081016040528092919081815260200182805461058c906133a3565b80156105d95780601f106105ae576101008083540402835291602001916105d9565b820191906000526020600020905b8154815290600101906020018083116105bc57829003601f168201915b5050505050905090565b60006105ee826119c4565b6004600083815260200190815260200160002060009054906101000a900473ffffffffffffffffffffffffffffffffffffffff169050919050565b6000610634826107ca565b90508073ffffffffffffffffffffffffffffffffffffffff168373ffffffffffffffffffffffffffffffffffffffff16036106a4576040517f08c379a000000000000000000000000000000000000000000000000000000000815260040161069b90613446565b60405180910390fd5b8073ffffffffffffffffffffffffffffffffffffffff166106c3611a0f565b73ffffffffffffffffffffffffffffffffffffffff1614806106f257506106f1816106ec611a0f565b61184e565b5b610731576040517f08c379a0000000000000000000000000000000000000000000000000000000008152600401610728906134d8565b60405180910390fd5b61073b8383611a17565b505050565b6000600954905090565b61075b610755611a0f565b82611ad0565b61079a576040517f08c379a00000000000000000000000000000000000000000000000000000000081526004016107919061356a565b60405180910390fd5b6107a5838383611b65565b505050565b6107c583838360405180602001604052806000815250610ee2565b505050565b6000806107d683611e5e565b9050600073ffffffffffffffffffffffffffffffffffffffff168173ffffffffffffffffffffffffffffffffffffffff1603610847576040517f08c379a000000000000000000000000000000000000000000000000000000000815260040161083e906135d6565b60405180910390fd5b80915050919050565b60008073ffffffffffffffffffffffffffffffffffffffff168273ffffffffffffffffffffffffffffffffffffffff16036108c0576040517f08c379a00000000000000000000000000000000000000000000000000000000081526004016108b790613668565b60405180910390fd5b600360008373ffffffffffffffffffffffffffffffffffffffff1673ffffffffffffffffffffffffffffffffffffffff168152602001908152602001600020549050919050565b60006109136007611e9b565b600061091f6007611eb1565b905061092b3382611ebf565b61093581856120dc565b61093f8184612180565b8091505092915050565b3373ffffffffffffffffffffffffffffffffffffffff16600b600084815260200190815260200160002060020160009054906101000a900473ffffffffffffffffffffffffffffffffffffffff1673ffffffffffffffffffffffffffffffffffffffff16146109ed576040517f08c379a00000000000000000000000000000000000000000000000000000000081526004016109e4906136fa565b60405180910390fd5b6009543414610a31576040517f08c379a0000000000000000000000000000000000000000000000000000000008152600401610a289061378c565b60405180910390fd5b6000600b600084815260200190815260200160002060040160006101000a81548160ff02191690831515021790555080600b60008481526020019081526020016000206003018190555033600b600084815260200190815260200160002060010160006101000a81548173ffffffffffffffffffffffffffffffffffffffff021916908373ffffffffffffffffffffffffffffffffffffffff16021790555030600b600084815260200190815260200160002060020160006101000a81548173ffffffffffffffffffffffffffffffffffffffff021916908373ffffffffffffffffffffffffffffffffffffffff160217905550610b2f6008612383565b610b3a333084611b65565b5050565b60606000610b4c6007611eb1565b90506000610b5a6008611eb1565b610b646007611eb1565b610b6e91906137db565b90506000808267ffffffffffffffff811115610b8d57610b8c612e65565b5b604051908082528060200260200182016040528015610bc657816020015b610bb3612aa8565b815260200190600190039081610bab5790505b50905060005b84811015610d95573073ffffffffffffffffffffffffffffffffffffffff16600b6000600184610bfc919061380f565b815260200190815260200160002060020160009054906101000a900473ffffffffffffffffffffffffffffffffffffffff1673ffffffffffffffffffffffffffffffffffffffff1603610d88576000600182610c58919061380f565b90506000600b60008381526020019081526020016000209050806040518060a0016040529081600082015481526020016001820160009054906101000a900473ffffffffffffffffffffffffffffffffffffffff1673ffffffffffffffffffffffffffffffffffffffff1673ffffffffffffffffffffffffffffffffffffffff1681526020016002820160009054906101000a900473ffffffffffffffffffffffffffffffffffffffff1673ffffffffffffffffffffffffffffffffffffffff1673ffffffffffffffffffffffffffffffffffffffff168152602001600382015481526020016004820160009054906101000a900460ff161515151581525050848681518110610d6b57610d6a613843565b5b6020026020010181905250600185610d83919061380f565b945050505b8080600101915050610bcc565b508094505050505090565b606060018054610daf906133a3565b80601f0160208091040260200160405190810160405280929190818152602001828054610ddb906133a3565b8015610e285780601f10610dfd57610100808354040283529160200191610e28565b820191906000526020600020905b815481529060010190602001808311610e0b57829003601f168201915b5050505050905090565b610e44610e3d611a0f565b83836123df565b5050565b600a60009054906101000a900473ffffffffffffffffffffffffffffffffffffffff1673ffffffffffffffffffffffffffffffffffffffff163373ffffffffffffffffffffffffffffffffffffffff1614610ed8576040517f08c379a0000000000000000000000000000000000000000000000000000000008152600401610ecf906138e4565b60405180910390fd5b8060098190555050565b610ef3610eed611a0f565b83611ad0565b610f32576040517f08c379a0000000000000000000000000000000000000000000000000000000008152600401610f299061356a565b60405180910390fd5b610f3e8484848461254b565b50505050565b6000600b6000838152602001908152602001600020600301549050803414610fa1576040517f08c379a0000000000000000000000000000000000000000000000000000000008152600401610f9890613976565b60405180910390fd5b33600b600084815260200190815260200160002060020160006101000a81548173ffffffffffffffffffffffffffffffffffffffff021916908373ffffffffffffffffffffffffffffffffffffffff1602179055506001600b600084815260200190815260200160002060040160006101000a81548160ff0219169083151502179055506000600b600084815260200190815260200160002060020160006101000a81548173ffffffffffffffffffffffffffffffffffffffff021916908373ffffffffffffffffffffffffffffffffffffffff1602179055506110856008611e9b565b611090303384611b65565b600a60009054906101000a900473ffffffffffffffffffffffffffffffffffffffff1673ffffffffffffffffffffffffffffffffffffffff166108fc6009549081150290604051600060405180830381858888f193505050501580156110fa573d6000803e3d6000fd5b50600b600083815260200190815260200160002060010160009054906101000a900473ffffffffffffffffffffffffffffffffffffffff1673ffffffffffffffffffffffffffffffffffffffff166108fc349081150290604051600060405180830381858888f19350505050158015611177573d6000803e3d6000fd5b505050565b6060600061118a6007611eb1565b905060008060005b8381101561122c573373ffffffffffffffffffffffffffffffffffffffff16600b60006001846111c2919061380f565b815260200190815260200160002060020160009054906101000a900473ffffffffffffffffffffffffffffffffffffffff1673ffffffffffffffffffffffffffffffffffffffff160361121f5760018361121c919061380f565b92505b8080600101915050611192565b5060008267ffffffffffffffff81111561124957611248612e65565b5b60405190808252806020026020018201604052801561128257816020015b61126f612aa8565b8152602001906001900390816112675790505b50905060005b84811015611451573373ffffffffffffffffffffffffffffffffffffffff16600b60006001846112b8919061380f565b815260200190815260200160002060020160009054906101000a900473ffffffffffffffffffffffffffffffffffffffff1673ffffffffffffffffffffffffffffffffffffffff1603611444576000600182611314919061380f565b90506000600b60008381526020019081526020016000209050806040518060a0016040529081600082015481526020016001820160009054906101000a900473ffffffffffffffffffffffffffffffffffffffff1673ffffffffffffffffffffffffffffffffffffffff1673ffffffffffffffffffffffffffffffffffffffff1681526020016002820160009054906101000a900473ffffffffffffffffffffffffffffffffffffffff1673ffffffffffffffffffffffffffffffffffffffff1673ffffffffffffffffffffffffffffffffffffffff168152602001600382015481526020016004820160009054906101000a900460ff16151515158152505084868151811061142757611426613843565b5b602002602001018190525060018561143f919061380f565b945050505b8080600101915050611288565b508094505050505090565b6060611467826119c4565b6000600660008481526020019081526020016000208054611487906133a3565b80601f01602080910402602001604051908101604052809291908181526020018280546114b3906133a3565b80156115005780601f106114d557610100808354040283529160200191611500565b820191906000526020600020905b8154815290600101906020018083116114e357829003601f168201915b5050505050905060006115116125a7565b90506000815103611526578192505050611569565b60008251111561155b5780826040516020016115439291906139d2565b60405160208183030381529060405292505050611569565b611564846125be565b925050505b919050565b6060600061157c6007611eb1565b905060008060005b8381101561161e573373ffffffffffffffffffffffffffffffffffffffff16600b60006001846115b4919061380f565b815260200190815260200160002060010160009054906101000a900473ffffffffffffffffffffffffffffffffffffffff1673ffffffffffffffffffffffffffffffffffffffff16036116115760018361160e919061380f565b92505b8080600101915050611584565b5060008267ffffffffffffffff81111561163b5761163a612e65565b5b60405190808252806020026020018201604052801561167457816020015b611661612aa8565b8152602001906001900390816116595790505b50905060005b84811015611843573373ffffffffffffffffffffffffffffffffffffffff16600b60006001846116aa919061380f565b815260200190815260200160002060010160009054906101000a900473ffffffffffffffffffffffffffffffffffffffff1673ffffffffffffffffffffffffffffffffffffffff1603611836576000600182611706919061380f565b90506000600b60008381526020019081526020016000209050806040518060a0016040529081600082015481526020016001820160009054906101000a900473ffffffffffffffffffffffffffffffffffffffff1673ffffffffffffffffffffffffffffffffffffffff1673ffffffffffffffffffffffffffffffffffffffff1681526020016002820160009054906101000a900473ffffffffffffffffffffffffffffffffffffffff1673ffffffffffffffffffffffffffffffffffffffff1673ffffffffffffffffffffffffffffffffffffffff168152602001600382015481526020016004820160009054906101000a900460ff16151515158152505084868151811061181957611818613843565b5b6020026020010181905250600185611831919061380f565b945050505b808060010191505061167a565b508094505050505090565b6000600560008473ffffffffffffffffffffffffffffffffffffffff1673ffffffffffffffffffffffffffffffffffffffff16815260200190815260200160002060008373ffffffffffffffffffffffffffffffffffffffff1673ffffffffffffffffffffffffffffffffffffffff16815260200190815260200160002060009054906101000a900460ff16905092915050565b60007f80ac58cd000000000000000000000000000000000000000000000000000000007bffffffffffffffffffffffffffffffffffffffffffffffffffffffff1916827bffffffffffffffffffffffffffffffffffffffffffffffffffffffff191614806119ad57507f5b5e139f000000000000000000000000000000000000000000000000000000007bffffffffffffffffffffffffffffffffffffffffffffffffffffffff1916827bffffffffffffffffffffffffffffffffffffffffffffffffffffffff1916145b806119bd57506119bc82612626565b5b9050919050565b6119cd81612690565b611a0c576040517f08c379a0000000000000000000000000000000000000000000000000000000008152600401611a03906135d6565b60405180910390fd5b50565b600033905090565b816004600083815260200190815260200160002060006101000a81548173ffffffffffffffffffffffffffffffffffffffff021916908373ffffffffffffffffffffffffffffffffffffffff160217905550808273ffffffffffffffffffffffffffffffffffffffff16611a8a836107ca565b73ffffffffffffffffffffffffffffffffffffffff167f8c5be1e5ebec7d5bd14f71427d1e84f3dd0314c0f7b2291e5b200ac8c7c3b92560405160405180910390a45050565b600080611adc836107ca565b90508073ffffffffffffffffffffffffffffffffffffffff168473ffffffffffffffffffffffffffffffffffffffff161480611b1e5750611b1d818561184e565b5b80611b5c57508373ffffffffffffffffffffffffffffffffffffffff16611b44846105e3565b73ffffffffffffffffffffffffffffffffffffffff16145b91505092915050565b8273ffffffffffffffffffffffffffffffffffffffff16611b85826107ca565b73ffffffffffffffffffffffffffffffffffffffff1614611bdb576040517f08c379a0000000000000000000000000000000000000000000000000000000008152600401611bd290613a68565b60405180910390fd5b600073ffffffffffffffffffffffffffffffffffffffff168273ffffffffffffffffffffffffffffffffffffffff1603611c4a576040517f08c379a0000000000000000000000000000000000000000000000000000000008152600401611c4190613afa565b60405180910390fd5b611c5783838360016126d1565b8273ffffffffffffffffffffffffffffffffffffffff16611c77826107ca565b73ffffffffffffffffffffffffffffffffffffffff1614611ccd576040517f08c379a0000000000000000000000000000000000000000000000000000000008152600401611cc490613a68565b60405180910390fd5b6004600082815260200190815260200160002060006101000a81549073ffffffffffffffffffffffffffffffffffffffff02191690556001600360008573ffffffffffffffffffffffffffffffffffffffff1673ffffffffffffffffffffffffffffffffffffffff168152602001908152602001600020600082825403925050819055506001600360008473ffffffffffffffffffffffffffffffffffffffff1673ffffffffffffffffffffffffffffffffffffffff16815260200190815260200160002060008282540192505081905550816002600083815260200190815260200160002060006101000a81548173ffffffffffffffffffffffffffffffffffffffff021916908373ffffffffffffffffffffffffffffffffffffffff160217905550808273ffffffffffffffffffffffffffffffffffffffff168473ffffffffffffffffffffffffffffffffffffffff167fddf252ad1be2c89b69c2b068fc378daa952ba7f163c4a11628f55a4df523b3ef60405160405180910390a4611e5983838360016126d7565b505050565b60006002600083815260200190815260200160002060009054906101000a900473ffffffffffffffffffffffffffffffffffffffff169050919050565b6001816000016000828254019250508190555050565b600081600001549050919050565b600073ffffffffffffffffffffffffffffffffffffffff168273ffffffffffffffffffffffffffffffffffffffff1603611f2e576040517f08c379a0000000000000000000000000000000000000000000000000000000008152600401611f2590613b66565b60405180910390fd5b611f3781612690565b15611f77576040517f08c379a0000000000000000000000000000000000000000000000000000000008152600401611f6e90613bd2565b60405180910390fd5b611f856000838360016126d1565b611f8e81612690565b15611fce576040517f08c379a0000000000000000000000000000000000000000000000000000000008152600401611fc590613bd2565b60405180910390fd5b6001600360008473ffffffffffffffffffffffffffffffffffffffff1673ffffffffffffffffffffffffffffffffffffffff16815260200190815260200160002060008282540192505081905550816002600083815260200190815260200160002060006101000a81548173ffffffffffffffffffffffffffffffffffffffff021916908373ffffffffffffffffffffffffffffffffffffffff160217905550808273ffffffffffffffffffffffffffffffffffffffff16600073ffffffffffffffffffffffffffffffffffffffff167fddf252ad1be2c89b69c2b068fc378daa952ba7f163c4a11628f55a4df523b3ef60405160405180910390a46120d86000838360016126d7565b5050565b6120e582612690565b612124576040517f08c379a000000000000000000000000000000000000000000000000000000000815260040161211b90613c64565b60405180910390fd5b806006600084815260200190815260200160002090816121449190613e30565b507ff8e1a15aba9398e019f0b49df1a4fde98ee17ae345cb5f6b5e2c27f5033e8ce7826040516121749190612dc0565b60405180910390a15050565b600081116121c3576040517f08c379a00000000000000000000000000000000000000000000000000000000081526004016121ba90613f4e565b60405180910390fd5b6009543414612207576040517f08c379a00000000000000000000000000000000000000000000000000000000081526004016121fe9061378c565b60405180910390fd5b6040518060a001604052808381526020013373ffffffffffffffffffffffffffffffffffffffff1681526020013073ffffffffffffffffffffffffffffffffffffffff16815260200182815260200160001515815250600b60008481526020019081526020016000206000820151816000015560208201518160010160006101000a81548173ffffffffffffffffffffffffffffffffffffffff021916908373ffffffffffffffffffffffffffffffffffffffff16021790555060408201518160020160006101000a81548173ffffffffffffffffffffffffffffffffffffffff021916908373ffffffffffffffffffffffffffffffffffffffff1602179055506060820151816003015560808201518160040160006101000a81548160ff021916908315150217905550905050612340333084611b65565b817fdebdb32cb5230ab727c9c361b16fdb2015df225c10e6a3e7f60ecd5dc5be451633308460006040516123779493929190613f6e565b60405180910390a25050565b600081600001549050600081116123cf576040517f08c379a00000000000000000000000000000000000000000000000000000000081526004016123c690613fff565b60405180910390fd5b6001810382600001819055505050565b8173ffffffffffffffffffffffffffffffffffffffff168373ffffffffffffffffffffffffffffffffffffffff160361244d576040517f08c379a00000000000000000000000000000000000000000000000000000000081526004016124449061406b565b60405180910390fd5b80600560008573ffffffffffffffffffffffffffffffffffffffff1673ffffffffffffffffffffffffffffffffffffffff16815260200190815260200160002060008473ffffffffffffffffffffffffffffffffffffffff1673ffffffffffffffffffffffffffffffffffffffff16815260200190815260200160002060006101000a81548160ff0219169083151502179055508173ffffffffffffffffffffffffffffffffffffffff168373ffffffffffffffffffffffffffffffffffffffff167f17307eab39ab6107e8899845ad3d59bd9653f200f220920489ca2b5937696c318360405161253e9190612bb9565b60405180910390a3505050565b612556848484611b65565b612562848484846126dd565b6125a1576040517f08c379a0000000000000000000000000000000000000000000000000000000008152600401612598906140fd565b60405180910390fd5b50505050565b606060405180602001604052806000815250905090565b60606125c9826119c4565b60006125d36125a7565b905060008151116125f3576040518060200160405280600081525061261e565b806125fd84612864565b60405160200161260e9291906139d2565b6040516020818303038152906040525b915050919050565b60007f01ffc9a7000000000000000000000000000000000000000000000000000000007bffffffffffffffffffffffffffffffffffffffffffffffffffffffff1916827bffffffffffffffffffffffffffffffffffffffffffffffffffffffff1916149050919050565b60008073ffffffffffffffffffffffffffffffffffffffff166126b283611e5e565b73ffffffffffffffffffffffffffffffffffffffff1614159050919050565b50505050565b50505050565b60006126fe8473ffffffffffffffffffffffffffffffffffffffff16612932565b15612857578373ffffffffffffffffffffffffffffffffffffffff1663150b7a02612727611a0f565b8786866040518563ffffffff1660e01b81526004016127499493929190614172565b6020604051808303816000875af192505050801561278557506040513d601f19601f8201168201806040525081019061278291906141d3565b60015b612807573d80600081146127b5576040519150601f19603f3d011682016040523d82523d6000602084013e6127ba565b606091505b5060008151036127ff576040517f08c379a00000000000000000000000000000000000000000000000000000000081526004016127f6906140fd565b60405180910390fd5b805181602001fd5b63150b7a0260e01b7bffffffffffffffffffffffffffffffffffffffffffffffffffffffff1916817bffffffffffffffffffffffffffffffffffffffffffffffffffffffff19161491505061285c565b600190505b949350505050565b60606000600161287384612955565b01905060008167ffffffffffffffff81111561289257612891612e65565b5b6040519080825280601f01601f1916602001820160405280156128c45781602001600182028036833780820191505090505b509050600082602001820190505b600115612927578080600190039150507f3031323334353637383961626364656600000000000000000000000000000000600a86061a8153600a858161291b5761291a614200565b5b049450600085036128d2575b819350505050919050565b6000808273ffffffffffffffffffffffffffffffffffffffff163b119050919050565b600080600090507a184f03e93ff9f4daa797ed6e38ed64bf6a1f01000000000000000083106129b3577a184f03e93ff9f4daa797ed6e38ed64bf6a1f01000000000000000083816129a9576129a8614200565b5b0492506040810190505b6d04ee2d6d415b85acef810000000083106129f0576d04ee2d6d415b85acef810000000083816129e6576129e5614200565b5b0492506020810190505b662386f26fc100008310612a1f57662386f26fc100008381612a1557612a14614200565b5b0492506010810190505b6305f5e1008310612a48576305f5e1008381612a3e57612a3d614200565b5b0492506008810190505b6127108310612a6d576127108381612a6357612a62614200565b5b0492506004810190505b60648310612a905760648381612a8657612a85614200565b5b0492506002810190505b600a8310612a9f576001810190505b80915050919050565b6040518060a0016040528060008152602001600073ffffffffffffffffffffffffffffffffffffffff168152602001600073ffffffffffffffffffffffffffffffffffffffff168152602001600081526020016000151581525090565b6000604051905090565b600080fd5b600080fd5b60007fffffffff0000000000000000000000000000000000000000000000000000000082169050919050565b612b4e81612b19565b8114612b5957600080fd5b50565b600081359050612b6b81612b45565b92915050565b600060208284031215612b8757612b86612b0f565b5b6000612b9584828501612b5c565b91505092915050565b60008115159050919050565b612bb381612b9e565b82525050565b6000602082019050612bce6000830184612baa565b92915050565b600081519050919050565b600082825260208201905092915050565b60005b83811015612c0e578082015181840152602081019050612bf3565b60008484015250505050565b6000601f19601f8301169050919050565b6000612c3682612bd4565b612c408185612bdf565b9350612c50818560208601612bf0565b612c5981612c1a565b840191505092915050565b60006020820190508181036000830152612c7e8184612c2b565b905092915050565b6000819050919050565b612c9981612c86565b8114612ca457600080fd5b50565b600081359050612cb681612c90565b92915050565b600060208284031215612cd257612cd1612b0f565b5b6000612ce084828501612ca7565b91505092915050565b600073ffffffffffffffffffffffffffffffffffffffff82169050919050565b6000612d1482612ce9565b9050919050565b612d2481612d09565b82525050565b6000602082019050612d3f6000830184612d1b565b92915050565b612d4e81612d09565b8114612d5957600080fd5b50565b600081359050612d6b81612d45565b92915050565b60008060408385031215612d8857612d87612b0f565b5b6000612d9685828601612d5c565b9250506020612da785828601612ca7565b9150509250929050565b612dba81612c86565b82525050565b6000602082019050612dd56000830184612db1565b92915050565b600080600060608486031215612df457612df3612b0f565b5b6000612e0286828701612d5c565b9350506020612e1386828701612d5c565b9250506040612e2486828701612ca7565b9150509250925092565b600060208284031215612e4457612e43612b0f565b5b6000612e5284828501612d5c565b91505092915050565b600080fd5b600080fd5b7f4e487b7100000000000000000000000000000000000000000000000000000000600052604160045260246000fd5b612e9d82612c1a565b810181811067ffffffffffffffff82111715612ebc57612ebb612e65565b5b80604052505050565b6000612ecf612b05565b9050612edb8282612e94565b919050565b600067ffffffffffffffff821115612efb57612efa612e65565b5b612f0482612c1a565b9050602081019050919050565b82818337600083830152505050565b6000612f33612f2e84612ee0565b612ec5565b905082815260208101848484011115612f4f57612f4e612e60565b5b612f5a848285612f11565b509392505050565b600082601f830112612f7757612f76612e5b565b5b8135612f87848260208601612f20565b91505092915050565b60008060408385031215612fa757612fa6612b0f565b5b600083013567ffffffffffffffff811115612fc557612fc4612b14565b5b612fd185828601612f62565b9250506020612fe285828601612ca7565b9150509250929050565b6000806040838503121561300357613002612b0f565b5b600061301185828601612ca7565b925050602061302285828601612ca7565b9150509250929050565b600081519050919050565b600082825260208201905092915050565b6000819050602082019050919050565b61306181612c86565b82525050565b600061307282612ce9565b9050919050565b61308281613067565b82525050565b61309181612b9e565b82525050565b60a0820160008201516130ad6000850182613058565b5060208201516130c06020850182613079565b5060408201516130d36040850182613079565b5060608201516130e66060850182613058565b5060808201516130f96080850182613088565b50505050565b600061310b8383613097565b60a08301905092915050565b6000602082019050919050565b600061312f8261302c565b6131398185613037565b935061314483613048565b8060005b8381101561317557815161315c88826130ff565b975061316783613117565b925050600181019050613148565b5085935050505092915050565b6000602082019050818103600083015261319c8184613124565b905092915050565b6131ad81612b9e565b81146131b857600080fd5b50565b6000813590506131ca816131a4565b92915050565b600080604083850312156131e7576131e6612b0f565b5b60006131f585828601612d5c565b9250506020613206858286016131bb565b9150509250929050565b600067ffffffffffffffff82111561322b5761322a612e65565b5b61323482612c1a565b9050602081019050919050565b600061325461324f84613210565b612ec5565b9050828152602081018484840111156132705761326f612e60565b5b61327b848285612f11565b509392505050565b600082601f83011261329857613297612e5b565b5b81356132a8848260208601613241565b91505092915050565b600080600080608085870312156132cb576132ca612b0f565b5b60006132d987828801612d5c565b94505060206132ea87828801612d5c565b93505060406132fb87828801612ca7565b925050606085013567ffffffffffffffff81111561331c5761331b612b14565b5b61332887828801613283565b91505092959194509250565b6000806040838503121561334b5761334a612b0f565b5b600061335985828601612d5c565b925050602061336a85828601612d5c565b9150509250929050565b7f4e487b7100000000000000000000000000000000000000000000000000000000600052602260045260246000fd5b600060028204905060018216806133bb57607f821691505b6020821081036133ce576133cd613374565b5b50919050565b7f4552433732313a20617070726f76616c20746f2063757272656e74206f776e6560008201527f7200000000000000000000000000000000000000000000000000000000000000602082015250565b6000613430602183612bdf565b915061343b826133d4565b604082019050919050565b6000602082019050818103600083015261345f81613423565b9050919050565b7f4552433732313a20617070726f76652063616c6c6572206973206e6f7420746f60008201527f6b656e206f776e6572206f7220617070726f76656420666f7220616c6c000000602082015250565b60006134c2603d83612bdf565b91506134cd82613466565b604082019050919050565b600060208201905081810360008301526134f1816134b5565b9050919050565b7f4552433732313a2063616c6c6572206973206e6f7420746f6b656e206f776e6560008201527f72206f7220617070726f76656400000000000000000000000000000000000000602082015250565b6000613554602d83612bdf565b915061355f826134f8565b604082019050919050565b6000602082019050818103600083015261358381613547565b9050919050565b7f4552433732313a20696e76616c696420746f6b656e2049440000000000000000600082015250565b60006135c0601883612bdf565b91506135cb8261358a565b602082019050919050565b600060208201905081810360008301526135ef816135b3565b9050919050565b7f4552433732313a2061646472657373207a65726f206973206e6f74206120766160008201527f6c6964206f776e65720000000000000000000000000000000000000000000000602082015250565b6000613652602983612bdf565b915061365d826135f6565b604082019050919050565b6000602082019050818103600083015261368181613645565b9050919050565b7f4f6e6c79206974656d206f776e65722063616e20706572666f726d207468697360008201527f206f7065726174696f6e00000000000000000000000000000000000000000000602082015250565b60006136e4602a83612bdf565b91506136ef82613688565b604082019050919050565b60006020820190508181036000830152613713816136d7565b9050919050565b7f5072696365206d75737420626520657175616c20746f206c697374696e67207060008201527f7269636500000000000000000000000000000000000000000000000000000000602082015250565b6000613776602483612bdf565b91506137818261371a565b604082019050919050565b600060208201905081810360008301526137a581613769565b9050919050565b7f4e487b7100000000000000000000000000000000000000000000000000000000600052601160045260246000fd5b60006137e682612c86565b91506137f183612c86565b9250828203905081811115613809576138086137ac565b5b92915050565b600061381a82612c86565b915061382583612c86565b925082820190508082111561383d5761383c6137ac565b5b92915050565b7f4e487b7100000000000000000000000000000000000000000000000000000000600052603260045260246000fd5b7f6f6e6c79206f776e6572206f6620746865206d61726b6574706c61636520636160008201527f6e206368616e676520746865206c697374696e67207072696365000000000000602082015250565b60006138ce603a83612bdf565b91506138d982613872565b604082019050919050565b600060208201905081810360008301526138fd816138c1565b9050919050565b7f506c65617365207375626d6974207468652061736b696e67207072696365206960008201527f6e206f7264657220746f20636f6d706c65746520746865207072696365000000602082015250565b6000613960603d83612bdf565b915061396b82613904565b604082019050919050565b6000602082019050818103600083015261398f81613953565b9050919050565b600081905092915050565b60006139ac82612bd4565b6139b68185613996565b93506139c6818560208601612bf0565b80840191505092915050565b60006139de82856139a1565b91506139ea82846139a1565b91508190509392505050565b7f4552433732313a207472616e736665722066726f6d20696e636f72726563742060008201527f6f776e6572000000000000000000000000000000000000000000000000000000602082015250565b6000613a52602583612bdf565b9150613a5d826139f6565b604082019050919050565b60006020820190508181036000830152613a8181613a45565b9050919050565b7f4552433732313a207472616e7366657220746f20746865207a65726f2061646460008201527f7265737300000000000000000000000000000000000000000000000000000000602082015250565b6000613ae4602483612bdf565b9150613aef82613a88565b604082019050919050565b60006020820190508181036000830152613b1381613ad7565b9050919050565b7f4552433732313a206d696e7420746f20746865207a65726f2061646472657373600082015250565b6000613b50602083612bdf565b9150613b5b82613b1a565b602082019050919050565b60006020820190508181036000830152613b7f81613b43565b9050919050565b7f4552433732313a20746f6b656e20616c7265616479206d696e74656400000000600082015250565b6000613bbc601c83612bdf565b9150613bc782613b86565b602082019050919050565b60006020820190508181036000830152613beb81613baf565b9050919050565b7f45524337323155524953746f726167653a2055524920736574206f66206e6f6e60008201527f6578697374656e7420746f6b656e000000000000000000000000000000000000602082015250565b6000613c4e602e83612bdf565b9150613c5982613bf2565b604082019050919050565b60006020820190508181036000830152613c7d81613c41565b9050919050565b60008190508160005260206000209050919050565b60006020601f8301049050919050565b600082821b905092915050565b600060088302613ce67fffffffffffffffffffffffffffffffffffffffffffffffffffffffffffffffff82613ca9565b613cf08683613ca9565b95508019841693508086168417925050509392505050565b6000819050919050565b6000613d2d613d28613d2384612c86565b613d08565b612c86565b9050919050565b6000819050919050565b613d4783613d12565b613d5b613d5382613d34565b848454613cb6565b825550505050565b600090565b613d70613d63565b613d7b818484613d3e565b505050565b5b81811015613d9f57613d94600082613d68565b600181019050613d81565b5050565b601f821115613de457613db581613c84565b613dbe84613c99565b81016020851015613dcd578190505b613de1613dd985613c99565b830182613d80565b50505b505050565b600082821c905092915050565b6000613e0760001984600802613de9565b1980831691505092915050565b6000613e208383613df6565b9150826002028217905092915050565b613e3982612bd4565b67ffffffffffffffff811115613e5257613e51612e65565b5b613e5c82546133a3565b613e67828285613da3565b600060209050601f831160018114613e9a5760008415613e88578287015190505b613e928582613e14565b865550613efa565b601f198416613ea886613c84565b60005b82811015613ed057848901518255600182019150602085019450602081019050613eab565b86831015613eed5784890151613ee9601f891682613df6565b8355505b6001600288020188555050505b505050505050565b7f7072696365206d757374206265206174206c6573742031000000000000000000600082015250565b6000613f38601783612bdf565b9150613f4382613f02565b602082019050919050565b60006020820190508181036000830152613f6781613f2b565b9050919050565b6000608082019050613f836000830187612d1b565b613f906020830186612d1b565b613f9d6040830185612db1565b613faa6060830184612baa565b95945050505050565b7f436f756e7465723a2064656372656d656e74206f766572666c6f770000000000600082015250565b6000613fe9601b83612bdf565b9150613ff482613fb3565b602082019050919050565b6000602082019050818103600083015261401881613fdc565b9050919050565b7f4552433732313a20617070726f766520746f2063616c6c657200000000000000600082015250565b6000614055601983612bdf565b91506140608261401f565b602082019050919050565b6000602082019050818103600083015261408481614048565b9050919050565b7f4552433732313a207472616e7366657220746f206e6f6e20455243373231526560008201527f63656976657220696d706c656d656e7465720000000000000000000000000000602082015250565b60006140e7603283612bdf565b91506140f28261408b565b604082019050919050565b60006020820190508181036000830152614116816140da565b9050919050565b600081519050919050565b600082825260208201905092915050565b60006141448261411d565b61414e8185614128565b935061415e818560208601612bf0565b61416781612c1a565b840191505092915050565b60006080820190506141876000830187612d1b565b6141946020830186612d1b565b6141a16040830185612db1565b81810360608301526141b38184614139565b905095945050505050565b6000815190506141cd81612b45565b92915050565b6000602082840312156141e9576141e8612b0f565b5b60006141f7848285016141be565b91505092915050565b7f4e487b7100000000000000000000000000000000000000000000000000000000600052601260045260246000fdfea2646970667358221220f2064ca6653d98e5251a11d61df5c1f02983e4df42efa5d693d8976a2f72ddde64736f6c63430008180033",
  "linkReferences": {},
  "deployedLinkReferences": {}
}